{
  "contractName": "KYC",
  "abi": [
    {
      "inputs": [],
      "payable": false,
      "stateMutability": "nonpayable",
      "type": "constructor"
    },
    {
      "constant": true,
      "inputs": [],
      "name": "admin",
      "outputs": [
        {
          "internalType": "address",
          "name": "",
          "type": "address"
        }
      ],
      "payable": false,
      "stateMutability": "view",
      "type": "function"
    },
    {
      "constant": true,
      "inputs": [],
      "name": "bankCount",
      "outputs": [
        {
          "internalType": "uint256",
          "name": "",
          "type": "uint256"
        }
      ],
      "payable": false,
      "stateMutability": "view",
      "type": "function"
    },
    {
      "constant": true,
      "inputs": [
        {
          "internalType": "address",
          "name": "",
          "type": "address"
        }
      ],
      "name": "banks",
      "outputs": [
        {
          "internalType": "string",
          "name": "name",
          "type": "string"
        },
        {
          "internalType": "address",
          "name": "ethAddress",
          "type": "address"
        },
        {
          "internalType": "string",
          "name": "regNumber",
          "type": "string"
        },
        {
          "internalType": "uint256",
          "name": "complaintsReported",
          "type": "uint256"
        },
        {
          "internalType": "uint256",
          "name": "KYC_count",
          "type": "uint256"
        },
        {
          "internalType": "bool",
          "name": "isAllowedToVote",
          "type": "bool"
        }
      ],
      "payable": false,
      "stateMutability": "view",
      "type": "function"
    },
    {
      "constant": true,
      "inputs": [
        {
          "internalType": "string",
          "name": "",
          "type": "string"
        }
      ],
      "name": "customers",
      "outputs": [
        {
          "internalType": "string",
          "name": "userName",
          "type": "string"
        },
        {
          "internalType": "string",
          "name": "data",
          "type": "string"
        },
        {
          "internalType": "address",
          "name": "bank",
          "type": "address"
        },
        {
          "internalType": "bool",
          "name": "kycStatus",
          "type": "bool"
        },
        {
          "internalType": "uint256",
          "name": "downVotes",
          "type": "uint256"
        },
        {
          "internalType": "uint256",
          "name": "upVotes",
          "type": "uint256"
        }
      ],
      "payable": false,
      "stateMutability": "view",
      "type": "function"
    },
    {
      "constant": true,
      "inputs": [
        {
          "internalType": "string",
          "name": "",
          "type": "string"
        }
      ],
      "name": "request",
      "outputs": [
        {
          "internalType": "string",
          "name": "userName",
          "type": "string"
        },
        {
          "internalType": "address",
          "name": "bankAddress",
          "type": "address"
        },
        {
          "internalType": "string",
          "name": "customerData",
          "type": "string"
        }
      ],
      "payable": false,
      "stateMutability": "view",
      "type": "function"
    },
    {
      "constant": false,
      "inputs": [
        {
          "internalType": "string",
          "name": "_userName",
          "type": "string"
        },
        {
          "internalType": "string",
          "name": "_customerData",
          "type": "string"
        }
      ],
      "name": "AddCustomer",
      "outputs": [],
      "payable": false,
      "stateMutability": "nonpayable",
      "type": "function"
    },
    {
      "constant": true,
      "inputs": [
        {
          "internalType": "string",
          "name": "_userName",
          "type": "string"
        }
      ],
      "name": "ViewCustomer",
      "outputs": [
        {
          "internalType": "string",
          "name": "",
          "type": "string"
        },
        {
          "internalType": "string",
          "name": "",
          "type": "string"
        },
        {
          "internalType": "address",
          "name": "",
          "type": "address"
        }
      ],
      "payable": false,
      "stateMutability": "view",
      "type": "function"
    },
    {
      "constant": false,
      "inputs": [
        {
          "internalType": "string",
          "name": "_userName",
          "type": "string"
        },
        {
          "internalType": "string",
          "name": "_newcustomerData",
          "type": "string"
        }
      ],
      "name": "ModifyCustomer",
      "outputs": [],
      "payable": false,
      "stateMutability": "nonpayable",
      "type": "function"
    },
    {
      "constant": false,
      "inputs": [
        {
          "internalType": "string",
          "name": "_userName",
          "type": "string"
        },
        {
          "internalType": "string",
          "name": "_customerData",
          "type": "string"
        }
      ],
      "name": "AddRequest",
      "outputs": [],
      "payable": false,
      "stateMutability": "nonpayable",
      "type": "function"
    },
    {
      "constant": false,
      "inputs": [
        {
          "internalType": "string",
          "name": "_userName",
          "type": "string"
        }
      ],
      "name": "RemoveRequest",
      "outputs": [],
      "payable": false,
      "stateMutability": "nonpayable",
      "type": "function"
    },
    {
      "constant": false,
      "inputs": [
        {
          "internalType": "string",
          "name": "_userName",
          "type": "string"
        }
      ],
      "name": "UpvoteCustomer",
      "outputs": [],
      "payable": false,
      "stateMutability": "nonpayable",
      "type": "function"
    },
    {
      "constant": false,
      "inputs": [
        {
          "internalType": "string",
          "name": "_userName",
          "type": "string"
        }
      ],
      "name": "DownVoteCustomer",
      "outputs": [],
      "payable": false,
      "stateMutability": "nonpayable",
      "type": "function"
    },
    {
      "constant": true,
      "inputs": [
        {
          "internalType": "address",
          "name": "bankAddress",
          "type": "address"
        }
      ],
      "name": "GetBankComplaints",
      "outputs": [
        {
          "internalType": "uint256",
          "name": "",
          "type": "uint256"
        }
      ],
      "payable": false,
      "stateMutability": "view",
      "type": "function"
    },
    {
      "constant": true,
      "inputs": [
        {
          "internalType": "address",
          "name": "bankAddress",
          "type": "address"
        }
      ],
      "name": "ViewBankDetails",
      "outputs": [
        {
          "internalType": "string",
          "name": "",
          "type": "string"
        },
        {
          "internalType": "address",
          "name": "",
          "type": "address"
        },
        {
          "internalType": "string",
          "name": "",
          "type": "string"
        },
        {
          "internalType": "uint256",
          "name": "",
          "type": "uint256"
        },
        {
          "internalType": "uint256",
          "name": "",
          "type": "uint256"
        },
        {
          "internalType": "bool",
          "name": "",
          "type": "bool"
        }
      ],
      "payable": false,
      "stateMutability": "view",
      "type": "function"
    },
    {
      "constant": false,
      "inputs": [
        {
          "internalType": "address",
          "name": "bankAddress",
          "type": "address"
        }
      ],
      "name": "ReportBank",
      "outputs": [],
      "payable": false,
      "stateMutability": "nonpayable",
      "type": "function"
    },
    {
      "constant": false,
      "inputs": [
        {
          "internalType": "string",
          "name": "bankName",
          "type": "string"
        },
        {
          "internalType": "address",
          "name": "bankAddress",
          "type": "address"
        },
        {
          "internalType": "string",
          "name": "registrationNumber",
          "type": "string"
        }
      ],
      "name": "AddBank",
      "outputs": [],
      "payable": false,
      "stateMutability": "nonpayable",
      "type": "function"
    },
    {
      "constant": false,
      "inputs": [
        {
          "internalType": "address",
          "name": "bankAddress",
          "type": "address"
        },
        {
          "internalType": "bool",
          "name": "status",
          "type": "bool"
        }
      ],
      "name": "ModifyIsAllowedToVote",
      "outputs": [],
      "payable": false,
      "stateMutability": "nonpayable",
      "type": "function"
    },
    {
      "constant": false,
      "inputs": [
        {
          "internalType": "address",
          "name": "bankAddress",
          "type": "address"
        }
      ],
      "name": "RemoveBank",
      "outputs": [],
      "payable": false,
      "stateMutability": "nonpayable",
      "type": "function"
    }
  ],
  "bytecode": "0x608060405234801561001057600080fd5b5033600160006101000a81548173ffffffffffffffffffffffffffffffffffffffff021916908373ffffffffffffffffffffffffffffffffffffffff16021790555060008081905550614c96806100686000396000f3fe608060405234801561001057600080fd5b50600436106101165760003560e01c806367676087116100a2578063a82c98d011610071578063a82c98d014610e44578063f0210aff14611030578063f851a440146111a5578063f879eb57146111ef578063fa4a55931461120d57610116565b806367676087146109fd57806380c3b8c214610a4157806394a2a5e214610bb6578063a0d01a0514610d8957610116565b80632c199889116100e95780632c1998891461047357806335fa22c3146106465780633e82ce8a14610798578063568e8e35146108535780636745eae7146109a557610116565b8063066eee031461011b5780630af770af1461028d5780631ef709ed146102d15780632b06f99714610321575b600080fd5b61028b6004803603606081101561013157600080fd5b810190808035906020019064010000000081111561014e57600080fd5b82018360208201111561016057600080fd5b8035906020019184600183028401116401000000008311171561018257600080fd5b91908080601f016020809104026020016040519081016040528093929190818152602001838380828437600081840152601f19601f820116905080830192505050505050509192919290803573ffffffffffffffffffffffffffffffffffffffff1690602001909291908035906020019064010000000081111561020557600080fd5b82018360208201111561021757600080fd5b8035906020019184600183028401116401000000008311171561023957600080fd5b91908080601f016020809104026020016040519081016040528093929190818152602001838380828437600081840152601f19601f8201169050808301925050505050505091929192905050506112c8565b005b6102cf600480360360208110156102a357600080fd5b81019080803573ffffffffffffffffffffffffffffffffffffffff1690602001909291905050506116a1565b005b61031f600480360360408110156102e757600080fd5b81019080803573ffffffffffffffffffffffffffffffffffffffff16906020019092919080351515906020019092919050505061197c565b005b6104716004803603604081101561033757600080fd5b810190808035906020019064010000000081111561035457600080fd5b82018360208201111561036657600080fd5b8035906020019184600183028401116401000000008311171561038857600080fd5b91908080601f016020809104026020016040519081016040528093929190818152602001838380828437600081840152601f19601f820116905080830192505050505050509192919290803590602001906401000000008111156103eb57600080fd5b8201836020820111156103fd57600080fd5b8035906020019184600183028401116401000000008311171561041f57600080fd5b91908080601f016020809104026020016040519081016040528093929190818152602001838380828437600081840152601f19601f820116905080830192505050505050509192919290505050611b85565b005b61052c6004803603602081101561048957600080fd5b81019080803590602001906401000000008111156104a657600080fd5b8201836020820111156104b857600080fd5b803590602001918460018302840111640100000000831117156104da57600080fd5b91908080601f016020809104026020016040519081016040528093929190818152602001838380828437600081840152601f19601f820116905080830192505050505050509192919290505050612013565b60405180806020018473ffffffffffffffffffffffffffffffffffffffff1673ffffffffffffffffffffffffffffffffffffffff16815260200180602001838103835286818151815260200191508051906020019080838360005b838110156105a2578082015181840152602081019050610587565b50505050905090810190601f1680156105cf5780820380516001836020036101000a031916815260200191505b50838103825284818151815260200191508051906020019080838360005b838110156106085780820151818401526020810190506105ed565b50505050905090810190601f1680156106355780820380516001836020036101000a031916815260200191505b509550505050505060405180910390f35b6107966004803603604081101561065c57600080fd5b810190808035906020019064010000000081111561067957600080fd5b82018360208201111561068b57600080fd5b803590602001918460018302840111640100000000831117156106ad57600080fd5b91908080601f016020809104026020016040519081016040528093929190818152602001838380828437600081840152601f19601f8201169050808301925050505050505091929192908035906020019064010000000081111561071057600080fd5b82018360208201111561072257600080fd5b8035906020019184600183028401116401000000008311171561074457600080fd5b91908080601f016020809104026020016040519081016040528093929190818152602001838380828437600081840152601f19601f8201169050808301925050505050505091929192905050506121a3565b005b610851600480360360208110156107ae57600080fd5b81019080803590602001906401000000008111156107cb57600080fd5b8201836020820111156107dd57600080fd5b803590602001918460018302840111640100000000831117156107ff57600080fd5b91908080601f016020809104026020016040519081016040528093929190818152602001838380828437600081840152601f19601f8201169050808301925050505050505091929192905050506125b9565b005b6109a36004803603604081101561086957600080fd5b810190808035906020019064010000000081111561088657600080fd5b82018360208201111561089857600080fd5b803590602001918460018302840111640100000000831117156108ba57600080fd5b91908080601f016020809104026020016040519081016040528093929190818152602001838380828437600081840152601f19601f8201169050808301925050505050505091929192908035906020019064010000000081111561091d57600080fd5b82018360208201111561092f57600080fd5b8035906020019184600183028401116401000000008311171561095157600080fd5b91908080601f016020809104026020016040519081016040528093929190818152602001838380828437600081840152601f19601f820116905080830192505050505050509192919290505050612c25565b005b6109e7600480360360208110156109bb57600080fd5b81019080803573ffffffffffffffffffffffffffffffffffffffff169060200190929190505050612fd0565b6040518082815260200191505060405180910390f35b610a3f60048036036020811015610a1357600080fd5b81019080803573ffffffffffffffffffffffffffffffffffffffff1690602001909291905050506131eb565b005b610a8360048036036020811015610a5757600080fd5b81019080803573ffffffffffffffffffffffffffffffffffffffff169060200190929190505050613456565b60405180806020018773ffffffffffffffffffffffffffffffffffffffff1673ffffffffffffffffffffffffffffffffffffffff1681526020018060200186815260200185815260200184151515158152602001838103835289818151815260200191508051906020019080838360005b83811015610b0f578082015181840152602081019050610af4565b50505050905090810190601f168015610b3c5780820380516001836020036101000a031916815260200191505b50838103825287818151815260200191508051906020019080838360005b83811015610b75578082015181840152602081019050610b5a565b50505050905090810190601f168015610ba25780820380516001836020036101000a031916815260200191505b509850505050505050505060405180910390f35b610c6f60048036036020811015610bcc57600080fd5b8101908080359060200190640100000000811115610be957600080fd5b820183602082011115610bfb57600080fd5b80359060200191846001830284011164010000000083111715610c1d57600080fd5b91908080601f016020809104026020016040519081016040528093929190818152602001838380828437600081840152601f19601f8201169050808301925050505050505091929192905050506135ef565b6040518080602001806020018473ffffffffffffffffffffffffffffffffffffffff1673ffffffffffffffffffffffffffffffffffffffff168152602001838103835286818151815260200191508051906020019080838360005b83811015610ce5578082015181840152602081019050610cca565b50505050905090810190601f168015610d125780820380516001836020036101000a031916815260200191505b50838103825285818151815260200191508051906020019080838360005b83811015610d4b578082015181840152602081019050610d30565b50505050905090810190601f168015610d785780820380516001836020036101000a031916815260200191505b509550505050505060405180910390f35b610e4260048036036020811015610d9f57600080fd5b8101908080359060200190640100000000811115610dbc57600080fd5b820183602082011115610dce57600080fd5b80359060200191846001830284011164010000000083111715610df057600080fd5b91908080601f016020809104026020016040519081016040528093929190818152602001838380828437600081840152601f19601f820116905080830192505050505050509192919290505050613a97565b005b610efd60048036036020811015610e5a57600080fd5b8101908080359060200190640100000000811115610e7757600080fd5b820183602082011115610e8957600080fd5b80359060200191846001830284011164010000000083111715610eab57600080fd5b91908080601f016020809104026020016040519081016040528093929190818152602001838380828437600081840152601f19601f820116905080830192505050505050509192919290505050613d47565b6040518080602001806020018773ffffffffffffffffffffffffffffffffffffffff1673ffffffffffffffffffffffffffffffffffffffff16815260200186151515158152602001858152602001848152602001838103835289818151815260200191508051906020019080838360005b83811015610f89578082015181840152602081019050610f6e565b50505050905090810190601f168015610fb65780820380516001836020036101000a031916815260200191505b50838103825288818151815260200191508051906020019080838360005b83811015610fef578082015181840152602081019050610fd4565b50505050905090810190601f16801561101c5780820380516001836020036101000a031916815260200191505b509850505050505050505060405180910390f35b6110726004803603602081101561104657600080fd5b81019080803573ffffffffffffffffffffffffffffffffffffffff169060200190929190505050613ef6565b60405180806020018773ffffffffffffffffffffffffffffffffffffffff1673ffffffffffffffffffffffffffffffffffffffff1681526020018060200186815260200185815260200184151515158152602001838103835289818151815260200191508051906020019080838360005b838110156110fe5780820151818401526020810190506110e3565b50505050905090810190601f16801561112b5780820380516001836020036101000a031916815260200191505b50838103825287818151815260200191508051906020019080838360005b83811015611164578082015181840152602081019050611149565b50505050905090810190601f1680156111915780820380516001836020036101000a031916815260200191505b509850505050505050505060405180910390f35b6111ad6143da565b604051808273ffffffffffffffffffffffffffffffffffffffff1673ffffffffffffffffffffffffffffffffffffffff16815260200191505060405180910390f35b6111f7614400565b6040518082815260200191505060405180910390f35b6112c66004803603602081101561122357600080fd5b810190808035906020019064010000000081111561124057600080fd5b82018360208201111561125257600080fd5b8035906020019184600183028401116401000000008311171561127457600080fd5b91908080601f016020809104026020016040519081016040528093929190818152602001838380828437600081840152601f19601f820116905080830192505050505050509192919290505050614406565b005b600160009054906101000a900473ffffffffffffffffffffffffffffffffffffffff1673ffffffffffffffffffffffffffffffffffffffff163373ffffffffffffffffffffffffffffffffffffffff161461138b576040517f08c379a000000000000000000000000000000000000000000000000000000000815260040180806020018281038252601b8152602001807f6d6574686f6420696e766f6b6564206279206e6f6e2d61646d696e000000000081525060200191505060405180910390fd5b600073ffffffffffffffffffffffffffffffffffffffff16600460008473ffffffffffffffffffffffffffffffffffffffff1673ffffffffffffffffffffffffffffffffffffffff16815260200190815260200160002060010160009054906101000a900473ffffffffffffffffffffffffffffffffffffffff1673ffffffffffffffffffffffffffffffffffffffff1614611472576040517f08c379a0000000000000000000000000000000000000000000000000000000008152600401808060200182810382526026815260200180614b316026913960400191505060405180910390fd5b82600460008473ffffffffffffffffffffffffffffffffffffffff1673ffffffffffffffffffffffffffffffffffffffff16815260200190815260200160002060000190805190602001906114c8929190614a17565b5081600460008473ffffffffffffffffffffffffffffffffffffffff1673ffffffffffffffffffffffffffffffffffffffff16815260200190815260200160002060010160006101000a81548173ffffffffffffffffffffffffffffffffffffffff021916908373ffffffffffffffffffffffffffffffffffffffff16021790555080600460008473ffffffffffffffffffffffffffffffffffffffff1673ffffffffffffffffffffffffffffffffffffffff16815260200190815260200160002060020190805190602001906115a0929190614a17565b506000600460008473ffffffffffffffffffffffffffffffffffffffff1673ffffffffffffffffffffffffffffffffffffffff168152602001908152602001600020600301819055506001600460008473ffffffffffffffffffffffffffffffffffffffff1673ffffffffffffffffffffffffffffffffffffffff16815260200190815260200160002060050160006101000a81548160ff0219169083151502179055506000600460008473ffffffffffffffffffffffffffffffffffffffff1673ffffffffffffffffffffffffffffffffffffffff1681526020019081526020016000206004018190555060016000808282540192505081905550505050565b600073ffffffffffffffffffffffffffffffffffffffff16600460003373ffffffffffffffffffffffffffffffffffffffff1673ffffffffffffffffffffffffffffffffffffffff16815260200190815260200160002060010160009054906101000a900473ffffffffffffffffffffffffffffffffffffffff1673ffffffffffffffffffffffffffffffffffffffff161415611789576040517f08c379a0000000000000000000000000000000000000000000000000000000008152600401808060200182810382526023815260200180614b796023913960400191505060405180910390fd5b600073ffffffffffffffffffffffffffffffffffffffff16600460008373ffffffffffffffffffffffffffffffffffffffff1673ffffffffffffffffffffffffffffffffffffffff16815260200190815260200160002060010160009054906101000a900473ffffffffffffffffffffffffffffffffffffffff1673ffffffffffffffffffffffffffffffffffffffff161415611871576040517f08c379a0000000000000000000000000000000000000000000000000000000008152600401808060200182810382526027815260200180614b9c6027913960400191505060405180910390fd5b6001600460008373ffffffffffffffffffffffffffffffffffffffff1673ffffffffffffffffffffffffffffffffffffffff1681526020019081526020016000206003016000828254019250508190555060006003600054816118d057fe5b04905080600460008473ffffffffffffffffffffffffffffffffffffffff1673ffffffffffffffffffffffffffffffffffffffff1681526020019081526020016000206003015410611978576000600460008473ffffffffffffffffffffffffffffffffffffffff1673ffffffffffffffffffffffffffffffffffffffff16815260200190815260200160002060050160006101000a81548160ff0219169083151502179055505b5050565b600160009054906101000a900473ffffffffffffffffffffffffffffffffffffffff1673ffffffffffffffffffffffffffffffffffffffff163373ffffffffffffffffffffffffffffffffffffffff1614611a3f576040517f08c379a000000000000000000000000000000000000000000000000000000000815260040180806020018281038252601b8152602001807f6d6574686f6420696e766f6b6564206279206e6f6e2d61646d696e000000000081525060200191505060405180910390fd5b600073ffffffffffffffffffffffffffffffffffffffff16600460008473ffffffffffffffffffffffffffffffffffffffff1673ffffffffffffffffffffffffffffffffffffffff16815260200190815260200160002060010160009054906101000a900473ffffffffffffffffffffffffffffffffffffffff1673ffffffffffffffffffffffffffffffffffffffff161415611b27576040517f08c379a0000000000000000000000000000000000000000000000000000000008152600401808060200182810382526022815260200180614b576022913960400191505060405180910390fd5b80600460008473ffffffffffffffffffffffffffffffffffffffff1673ffffffffffffffffffffffffffffffffffffffff16815260200190815260200160002060050160006101000a81548160ff0219169083151502179055505050565b600073ffffffffffffffffffffffffffffffffffffffff16600460003373ffffffffffffffffffffffffffffffffffffffff1673ffffffffffffffffffffffffffffffffffffffff16815260200190815260200160002060010160009054906101000a900473ffffffffffffffffffffffffffffffffffffffff1673ffffffffffffffffffffffffffffffffffffffff161415611c6d576040517f08c379a0000000000000000000000000000000000000000000000000000000008152600401808060200182810382526023815260200180614b796023913960400191505060405180910390fd5b600073ffffffffffffffffffffffffffffffffffffffff166003836040518082805190602001908083835b60208310611cbb5780518252602082019150602081019050602083039250611c98565b6001836020036101000a038019825116818451168082178552505050505050905001915050908152602001604051809103902060020160009054906101000a900473ffffffffffffffffffffffffffffffffffffffff1673ffffffffffffffffffffffffffffffffffffffff1614611d7e576040517f08c379a0000000000000000000000000000000000000000000000000000000008152600401808060200182810382526051815260200180614bea6051913960600191505060405180910390fd5b816003836040518082805190602001908083835b60208310611db55780518252602082019150602081019050602083039250611d92565b6001836020036101000a03801982511681845116808217855250505050505090500191505090815260200160405180910390206000019080519060200190611dfe929190614a17565b50806003836040518082805190602001908083835b60208310611e365780518252602082019150602081019050602083039250611e13565b6001836020036101000a03801982511681845116808217855250505050505090500191505090815260200160405180910390206001019080519060200190611e7f929190614a17565b50336003836040518082805190602001908083835b60208310611eb75780518252602082019150602081019050602083039250611e94565b6001836020036101000a038019825116818451168082178552505050505050905001915050908152602001604051809103902060020160006101000a81548173ffffffffffffffffffffffffffffffffffffffff021916908373ffffffffffffffffffffffffffffffffffffffff16021790555060006003836040518082805190602001908083835b60208310611f635780518252602082019150602081019050602083039250611f40565b6001836020036101000a03801982511681845116808217855250505050505090500191505090815260200160405180910390206004018190555060006003836040518082805190602001908083835b60208310611fd55780518252602082019150602081019050602083039250611fb2565b6001836020036101000a0380198251168184511680821785525050505050509050019150509081526020016040518091039020600301819055505050565b600281805160208101820180518482526020830160208501208183528095505050505050600091509050806000018054600181600116156101000203166002900480601f0160208091040260200160405190810160405280929190818152602001828054600181600116156101000203166002900480156120d55780601f106120aa576101008083540402835291602001916120d5565b820191906000526020600020905b8154815290600101906020018083116120b857829003601f168201915b5050505050908060010160009054906101000a900473ffffffffffffffffffffffffffffffffffffffff1690806002018054600181600116156101000203166002900480601f0160208091040260200160405190810160405280929190818152602001828054600181600116156101000203166002900480156121995780601f1061216e57610100808354040283529160200191612199565b820191906000526020600020905b81548152906001019060200180831161217c57829003601f168201915b5050505050905083565b600073ffffffffffffffffffffffffffffffffffffffff16600460003373ffffffffffffffffffffffffffffffffffffffff1673ffffffffffffffffffffffffffffffffffffffff16815260200190815260200160002060010160009054906101000a900473ffffffffffffffffffffffffffffffffffffffff1673ffffffffffffffffffffffffffffffffffffffff16141561228b576040517f08c379a0000000000000000000000000000000000000000000000000000000008152600401808060200182810382526023815260200180614b796023913960400191505060405180910390fd5b600073ffffffffffffffffffffffffffffffffffffffff166003836040518082805190602001908083835b602083106122d957805182526020820191506020810190506020830392506122b6565b6001836020036101000a038019825116818451168082178552505050505050905001915050908152602001604051809103902060020160009054906101000a900473ffffffffffffffffffffffffffffffffffffffff1673ffffffffffffffffffffffffffffffffffffffff16141561239d576040517f08c379a0000000000000000000000000000000000000000000000000000000008152600401808060200182810382526027815260200180614bc36027913960400191505060405180910390fd5b806003836040518082805190602001908083835b602083106123d457805182526020820191506020810190506020830392506123b1565b6001836020036101000a0380198251168184511680821785525050505050509050019150509081526020016040518091039020600101908051906020019061241d929190614a17565b5060006003836040518082805190602001908083835b602083106124565780518252602082019150602081019050602083039250612433565b6001836020036101000a03801982511681845116808217855250505050505090500191505090815260200160405180910390206004018190555060006003836040518082805190602001908083835b602083106124c857805182526020820191506020810190506020830392506124a5565b6001836020036101000a0380198251168184511680821785525050505050509050019150509081526020016040518091039020600301819055506002826040518082805190602001908083835b602083106125385780518252602082019150602081019050602083039250612515565b6001836020036101000a03801982511681845116808217855250505050505090500191505090815260200160405180910390206000808201600061257c9190614a97565b6001820160006101000a81549073ffffffffffffffffffffffffffffffffffffffff02191690556002820160006125b39190614a97565b50505050565b600073ffffffffffffffffffffffffffffffffffffffff16600460003373ffffffffffffffffffffffffffffffffffffffff1673ffffffffffffffffffffffffffffffffffffffff16815260200190815260200160002060010160009054906101000a900473ffffffffffffffffffffffffffffffffffffffff1673ffffffffffffffffffffffffffffffffffffffff1614156126a1576040517f08c379a0000000000000000000000000000000000000000000000000000000008152600401808060200182810382526023815260200180614b796023913960400191505060405180910390fd5b60011515600460003373ffffffffffffffffffffffffffffffffffffffff1673ffffffffffffffffffffffffffffffffffffffff16815260200190815260200160002060050160009054906101000a900460ff1615151461274d576040517f08c379a000000000000000000000000000000000000000000000000000000000815260040180806020018281038252602c815260200180614b05602c913960400191505060405180910390fd5b600073ffffffffffffffffffffffffffffffffffffffff166003826040518082805190602001908083835b6020831061279b5780518252602082019150602081019050602083039250612778565b6001836020036101000a038019825116818451168082178552505050505050905001915050908152602001604051809103902060020160009054906101000a900473ffffffffffffffffffffffffffffffffffffffff1673ffffffffffffffffffffffffffffffffffffffff16141561285f576040517f08c379a0000000000000000000000000000000000000000000000000000000008152600401808060200182810382526027815260200180614bc36027913960400191505060405180910390fd5b60016003826040518082805190602001908083835b602083106128975780518252602082019150602081019050602083039250612874565b6001836020036101000a03801982511681845116808217855250505050505090500191505090815260200160405180910390206004016000828254019250508190555060006003600054816128e857fe5b0490506003826040518082805190602001908083835b6020831061292157805182526020820191506020810190506020830392506128fe565b6001836020036101000a0380198251168184511680821785525050505050509050019150509081526020016040518091039020600301546003836040518082805190602001908083835b6020831061298e578051825260208201915060208101905060208303925061296b565b6001836020036101000a038019825116818451168082178552505050505050905001915050908152602001604051809103902060040154118015612a3d5750806003836040518082805190602001908083835b60208310612a0457805182526020820191506020810190506020830392506129e1565b6001836020036101000a038019825116818451168082178552505050505050905001915050908152602001604051809103902060030154105b15612acc5760016003836040518082805190602001908083835b60208310612a7a5780518252602082019150602081019050602083039250612a57565b6001836020036101000a038019825116818451168082178552505050505050905001915050908152602001604051809103902060020160146101000a81548160ff021916908315150217905550612c21565b806003836040518082805190602001908083835b60208310612b035780518252602082019150602081019050602083039250612ae0565b6001836020036101000a03801982511681845116808217855250505050505090500191505090815260200160405180910390206003015410612c205760006003836040518082805190602001908083835b60208310612b775780518252602082019150602081019050602083039250612b54565b6001836020036101000a038019825116818451168082178552505050505050905001915050908152602001604051809103902060020160146101000a81548160ff0219169083151502179055506000600460003373ffffffffffffffffffffffffffffffffffffffff1673ffffffffffffffffffffffffffffffffffffffff16815260200190815260200160002060050160006101000a81548160ff0219169083151502179055505b5b5050565b600073ffffffffffffffffffffffffffffffffffffffff16600460003373ffffffffffffffffffffffffffffffffffffffff1673ffffffffffffffffffffffffffffffffffffffff16815260200190815260200160002060010160009054906101000a900473ffffffffffffffffffffffffffffffffffffffff1673ffffffffffffffffffffffffffffffffffffffff161415612d0d576040517f08c379a0000000000000000000000000000000000000000000000000000000008152600401808060200182810382526023815260200180614b796023913960400191505060405180910390fd5b600073ffffffffffffffffffffffffffffffffffffffff166003836040518082805190602001908083835b60208310612d5b5780518252602082019150602081019050602083039250612d38565b6001836020036101000a038019825116818451168082178552505050505050905001915050908152602001604051809103902060020160009054906101000a900473ffffffffffffffffffffffffffffffffffffffff1673ffffffffffffffffffffffffffffffffffffffff161415612e1f576040517f08c379a0000000000000000000000000000000000000000000000000000000008152600401808060200182810382526027815260200180614bc36027913960400191505060405180910390fd5b816002836040518082805190602001908083835b60208310612e565780518252602082019150602081019050602083039250612e33565b6001836020036101000a03801982511681845116808217855250505050505090500191505090815260200160405180910390206000019080519060200190612e9f929190614a17565b50806002836040518082805190602001908083835b60208310612ed75780518252602082019150602081019050602083039250612eb4565b6001836020036101000a03801982511681845116808217855250505050505090500191505090815260200160405180910390206002019080519060200190612f20929190614a17565b50336002836040518082805190602001908083835b60208310612f585780518252602082019150602081019050602083039250612f35565b6001836020036101000a038019825116818451168082178552505050505050905001915050908152602001604051809103902060010160006101000a81548173ffffffffffffffffffffffffffffffffffffffff021916908373ffffffffffffffffffffffffffffffffffffffff1602179055505050565b60008073ffffffffffffffffffffffffffffffffffffffff16600460003373ffffffffffffffffffffffffffffffffffffffff1673ffffffffffffffffffffffffffffffffffffffff16815260200190815260200160002060010160009054906101000a900473ffffffffffffffffffffffffffffffffffffffff1673ffffffffffffffffffffffffffffffffffffffff1614156130b9576040517f08c379a0000000000000000000000000000000000000000000000000000000008152600401808060200182810382526023815260200180614b796023913960400191505060405180910390fd5b600073ffffffffffffffffffffffffffffffffffffffff16600460008473ffffffffffffffffffffffffffffffffffffffff1673ffffffffffffffffffffffffffffffffffffffff16815260200190815260200160002060010160009054906101000a900473ffffffffffffffffffffffffffffffffffffffff1673ffffffffffffffffffffffffffffffffffffffff1614156131a1576040517f08c379a0000000000000000000000000000000000000000000000000000000008152600401808060200182810382526027815260200180614b9c6027913960400191505060405180910390fd5b600460008373ffffffffffffffffffffffffffffffffffffffff1673ffffffffffffffffffffffffffffffffffffffff168152602001908152602001600020600301549050919050565b600160009054906101000a900473ffffffffffffffffffffffffffffffffffffffff1673ffffffffffffffffffffffffffffffffffffffff163373ffffffffffffffffffffffffffffffffffffffff16146132ae576040517f08c379a000000000000000000000000000000000000000000000000000000000815260040180806020018281038252601b8152602001807f6d6574686f6420696e766f6b6564206279206e6f6e2d61646d696e000000000081525060200191505060405180910390fd5b600073ffffffffffffffffffffffffffffffffffffffff16600460008373ffffffffffffffffffffffffffffffffffffffff1673ffffffffffffffffffffffffffffffffffffffff16815260200190815260200160002060010160009054906101000a900473ffffffffffffffffffffffffffffffffffffffff1673ffffffffffffffffffffffffffffffffffffffff161415613396576040517f08c379a0000000000000000000000000000000000000000000000000000000008152600401808060200182810382526022815260200180614b576022913960400191505060405180910390fd5b600460008273ffffffffffffffffffffffffffffffffffffffff1673ffffffffffffffffffffffffffffffffffffffff168152602001908152602001600020600080820160006133e69190614a97565b6001820160006101000a81549073ffffffffffffffffffffffffffffffffffffffff021916905560028201600061341d9190614a97565b600382016000905560048201600090556005820160006101000a81549060ff021916905550506001600080828254039250508190555050565b6004602052806000526040600020600091509050806000018054600181600116156101000203166002900480601f0160208091040260200160405190810160405280929190818152602001828054600181600116156101000203166002900480156135025780601f106134d757610100808354040283529160200191613502565b820191906000526020600020905b8154815290600101906020018083116134e557829003601f168201915b5050505050908060010160009054906101000a900473ffffffffffffffffffffffffffffffffffffffff1690806002018054600181600116156101000203166002900480601f0160208091040260200160405190810160405280929190818152602001828054600181600116156101000203166002900480156135c65780601f1061359b576101008083540402835291602001916135c6565b820191906000526020600020905b8154815290600101906020018083116135a957829003601f168201915b5050505050908060030154908060040154908060050160009054906101000a900460ff16905086565b60608060008073ffffffffffffffffffffffffffffffffffffffff16600460003373ffffffffffffffffffffffffffffffffffffffff1673ffffffffffffffffffffffffffffffffffffffff16815260200190815260200160002060010160009054906101000a900473ffffffffffffffffffffffffffffffffffffffff1673ffffffffffffffffffffffffffffffffffffffff1614156136db576040517f08c379a0000000000000000000000000000000000000000000000000000000008152600401808060200182810382526023815260200180614b796023913960400191505060405180910390fd5b600073ffffffffffffffffffffffffffffffffffffffff166003856040518082805190602001908083835b602083106137295780518252602082019150602081019050602083039250613706565b6001836020036101000a038019825116818451168082178552505050505050905001915050908152602001604051809103902060020160009054906101000a900473ffffffffffffffffffffffffffffffffffffffff1673ffffffffffffffffffffffffffffffffffffffff1614156137ed576040517f08c379a0000000000000000000000000000000000000000000000000000000008152600401808060200182810382526027815260200180614bc36027913960400191505060405180910390fd5b6003846040518082805190602001908083835b602083106138235780518252602082019150602081019050602083039250613800565b6001836020036101000a03801982511681845116808217855250505050505090500191505090815260200160405180910390206000016003856040518082805190602001908083835b6020831061388f578051825260208201915060208101905060208303925061386c565b6001836020036101000a03801982511681845116808217855250505050505090500191505090815260200160405180910390206001016003866040518082805190602001908083835b602083106138fb57805182526020820191506020810190506020830392506138d8565b6001836020036101000a038019825116818451168082178552505050505050905001915050908152602001604051809103902060020160009054906101000a900473ffffffffffffffffffffffffffffffffffffffff16828054600181600116156101000203166002900480601f0160208091040260200160405190810160405280929190818152602001828054600181600116156101000203166002900480156139e75780601f106139bc576101008083540402835291602001916139e7565b820191906000526020600020905b8154815290600101906020018083116139ca57829003601f168201915b50505050509250818054600181600116156101000203166002900480601f016020809104026020016040519081016040528092919081815260200182805460018160011615610100020316600290048015613a835780601f10613a5857610100808354040283529160200191613a83565b820191906000526020600020905b815481529060010190602001808311613a6657829003601f168201915b505050505091509250925092509193909250565b600073ffffffffffffffffffffffffffffffffffffffff16600460003373ffffffffffffffffffffffffffffffffffffffff1673ffffffffffffffffffffffffffffffffffffffff16815260200190815260200160002060010160009054906101000a900473ffffffffffffffffffffffffffffffffffffffff1673ffffffffffffffffffffffffffffffffffffffff161415613b7f576040517f08c379a0000000000000000000000000000000000000000000000000000000008152600401808060200182810382526023815260200180614b796023913960400191505060405180910390fd5b600073ffffffffffffffffffffffffffffffffffffffff166003826040518082805190602001908083835b60208310613bcd5780518252602082019150602081019050602083039250613baa565b6001836020036101000a038019825116818451168082178552505050505050905001915050908152602001604051809103902060020160009054906101000a900473ffffffffffffffffffffffffffffffffffffffff1673ffffffffffffffffffffffffffffffffffffffff161415613c91576040517f08c379a0000000000000000000000000000000000000000000000000000000008152600401808060200182810382526027815260200180614bc36027913960400191505060405180910390fd5b6002816040518082805190602001908083835b60208310613cc75780518252602082019150602081019050602083039250613ca4565b6001836020036101000a038019825116818451168082178552505050505050905001915050908152602001604051809103902060008082016000613d0b9190614a97565b6001820160006101000a81549073ffffffffffffffffffffffffffffffffffffffff0219169055600282016000613d429190614a97565b505050565b600381805160208101820180518482526020830160208501208183528095505050505050600091509050806000018054600181600116156101000203166002900480601f016020809104026020016040519081016040528092919081815260200182805460018160011615610100020316600290048015613e095780601f10613dde57610100808354040283529160200191613e09565b820191906000526020600020905b815481529060010190602001808311613dec57829003601f168201915b505050505090806001018054600181600116156101000203166002900480601f016020809104026020016040519081016040528092919081815260200182805460018160011615610100020316600290048015613ea75780601f10613e7c57610100808354040283529160200191613ea7565b820191906000526020600020905b815481529060010190602001808311613e8a57829003601f168201915b5050505050908060020160009054906101000a900473ffffffffffffffffffffffffffffffffffffffff16908060020160149054906101000a900460ff16908060030154908060040154905086565b60606000606060008060008073ffffffffffffffffffffffffffffffffffffffff16600460003373ffffffffffffffffffffffffffffffffffffffff1673ffffffffffffffffffffffffffffffffffffffff16815260200190815260200160002060010160009054906101000a900473ffffffffffffffffffffffffffffffffffffffff1673ffffffffffffffffffffffffffffffffffffffff161415613fe8576040517f08c379a0000000000000000000000000000000000000000000000000000000008152600401808060200182810382526023815260200180614b796023913960400191505060405180910390fd5b600073ffffffffffffffffffffffffffffffffffffffff16600460008973ffffffffffffffffffffffffffffffffffffffff1673ffffffffffffffffffffffffffffffffffffffff16815260200190815260200160002060010160009054906101000a900473ffffffffffffffffffffffffffffffffffffffff1673ffffffffffffffffffffffffffffffffffffffff1614156140d0576040517f08c379a0000000000000000000000000000000000000000000000000000000008152600401808060200182810382526027815260200180614b9c6027913960400191505060405180910390fd5b600460008873ffffffffffffffffffffffffffffffffffffffff1673ffffffffffffffffffffffffffffffffffffffff168152602001908152602001600020600001600460008973ffffffffffffffffffffffffffffffffffffffff1673ffffffffffffffffffffffffffffffffffffffff16815260200190815260200160002060010160009054906101000a900473ffffffffffffffffffffffffffffffffffffffff16600460008a73ffffffffffffffffffffffffffffffffffffffff1673ffffffffffffffffffffffffffffffffffffffff168152602001908152602001600020600201600460008b73ffffffffffffffffffffffffffffffffffffffff1673ffffffffffffffffffffffffffffffffffffffff16815260200190815260200160002060030154600460008c73ffffffffffffffffffffffffffffffffffffffff1673ffffffffffffffffffffffffffffffffffffffff16815260200190815260200160002060040154600460008d73ffffffffffffffffffffffffffffffffffffffff1673ffffffffffffffffffffffffffffffffffffffff16815260200190815260200160002060050160009054906101000a900460ff16858054600181600116156101000203166002900480601f0160208091040260200160405190810160405280929190818152602001828054600181600116156101000203166002900480156143225780601f106142f757610100808354040283529160200191614322565b820191906000526020600020905b81548152906001019060200180831161430557829003601f168201915b50505050509550838054600181600116156101000203166002900480601f0160208091040260200160405190810160405280929190818152602001828054600181600116156101000203166002900480156143be5780601f10614393576101008083540402835291602001916143be565b820191906000526020600020905b8154815290600101906020018083116143a157829003601f168201915b5050505050935095509550955095509550955091939550919395565b600160009054906101000a900473ffffffffffffffffffffffffffffffffffffffff1681565b60005481565b600073ffffffffffffffffffffffffffffffffffffffff16600460003373ffffffffffffffffffffffffffffffffffffffff1673ffffffffffffffffffffffffffffffffffffffff16815260200190815260200160002060010160009054906101000a900473ffffffffffffffffffffffffffffffffffffffff1673ffffffffffffffffffffffffffffffffffffffff1614156144ee576040517f08c379a0000000000000000000000000000000000000000000000000000000008152600401808060200182810382526023815260200180614b796023913960400191505060405180910390fd5b60011515600460003373ffffffffffffffffffffffffffffffffffffffff1673ffffffffffffffffffffffffffffffffffffffff16815260200190815260200160002060050160009054906101000a900460ff1615151461459a576040517f08c379a0000000000000000000000000000000000000000000000000000000008152600401808060200182810382526027815260200180614c3b6027913960400191505060405180910390fd5b600073ffffffffffffffffffffffffffffffffffffffff166003826040518082805190602001908083835b602083106145e857805182526020820191506020810190506020830392506145c5565b6001836020036101000a038019825116818451168082178552505050505050905001915050908152602001604051809103902060020160009054906101000a900473ffffffffffffffffffffffffffffffffffffffff1673ffffffffffffffffffffffffffffffffffffffff1614156146ac576040517f08c379a0000000000000000000000000000000000000000000000000000000008152600401808060200182810382526027815260200180614bc36027913960400191505060405180910390fd5b60016003826040518082805190602001908083835b602083106146e457805182526020820191506020810190506020830392506146c1565b6001836020036101000a038019825116818451168082178552505050505050905001915050908152602001604051809103902060030160008282540192505081905550600060036000548161473557fe5b0490506003826040518082805190602001908083835b6020831061476e578051825260208201915060208101905060208303925061474b565b6001836020036101000a0380198251168184511680821785525050505050509050019150509081526020016040518091039020600301546003836040518082805190602001908083835b602083106147db57805182526020820191506020810190506020830392506147b8565b6001836020036101000a03801982511681845116808217855250505050505090500191505090815260200160405180910390206004015411801561488a5750806003836040518082805190602001908083835b60208310614851578051825260208201915060208101905060208303925061482e565b6001836020036101000a038019825116818451168082178552505050505050905001915050908152602001604051809103902060030154105b156149195760016003836040518082805190602001908083835b602083106148c757805182526020820191506020810190506020830392506148a4565b6001836020036101000a038019825116818451168082178552505050505050905001915050908152602001604051809103902060020160146101000a81548160ff021916908315150217905550614a13565b806003836040518082805190602001908083835b60208310614950578051825260208201915060208101905060208303925061492d565b6001836020036101000a03801982511681845116808217855250505050505090500191505090815260200160405180910390206003015410614a125760006003836040518082805190602001908083835b602083106149c457805182526020820191506020810190506020830392506149a1565b6001836020036101000a038019825116818451168082178552505050505050905001915050908152602001604051809103902060020160146101000a81548160ff0219169083151502179055505b5b5050565b828054600181600116156101000203166002900490600052602060002090601f016020900481019282601f10614a5857805160ff1916838001178555614a86565b82800160010185558215614a86579182015b82811115614a85578251825591602001919060010190614a6a565b5b509050614a939190614adf565b5090565b50805460018160011615610100020316600290046000825580601f10614abd5750614adc565b601f016020900490600052602060002090810190614adb9190614adf565b5b50565b614b0191905b80821115614afd576000816000905550600101614ae5565b5090565b9056fe546869732062616e6b2069732062616e6e65642066726f6d207570766f74696e672f646f776e766f74696e6742616e6b20616c72656164792070726573656e7420696e207468652062616e6b73206c69737442616e6b206e6f742070726573656e7420696e207468652062616e6b73206c69737442616e6b206973206e6f742070726573656e7420696e2074686520646174616261736542616e6b2073686f756c642062652070726573656e7420696e207468652062616e6b206c697374437573746f6d6572206973206e6f742070726573656e7420696e20746865206461746162617365437573746f6d657220697320616c72656164792070726573656e742c20706c656173652063616c6c206d6f64696679437573746f6d657220746f20656469742074686520637573746f6d6572206461746162616e6b2069732062616e6e65642066726f6d207570766f74696e672f646f776e766f74696e67a265627a7a72315820c0036c52bcc0524ffb488793cfe5b08d98a1aa2df34f6e915333d6bf8f46b24e64736f6c63430005100032",
  "source": "pragma solidity ^0.5.9;\r\n\r\ncontract KYC{\r\n\r\n\r\n    //customer struct\r\n    struct Customer {\r\n        string userName;\r\n        string data;\r\n        address bank;\r\n        bool kycStatus;\r\n        uint downVotes;\r\n        uint upVotes;\r\n    }\r\n\r\n    //bank struct\r\n    struct Bank {\r\n        string name;\r\n        address ethAddress;\r\n        string regNumber;\r\n        uint complaintsReported;\r\n        uint KYC_count;\r\n        bool isAllowedToVote;\r\n    }\r\n\r\n    //kyc struct\r\n    struct kycRequest{\r\n\r\n        string userName;\r\n        address bankAddress;\r\n        string customerData;\r\n    }\r\n\r\n    //variable to hold the total count of banks\r\n    uint public  bankCount;\r\n\r\n    //variable to hold the address of admin account\r\n    address public admin;\r\n\r\n    //request list mapping of customer name with it's kycRequest details in kycRequest struct\r\n    //kyc request list\r\n    mapping (string=>kycRequest) public request;\r\n\r\n    //customer list mapping of customer name with its details in customer struct\r\n    //customer list\r\n    mapping(string => Customer)public  customers;\r\n\r\n    //bank list mapping of bank address with its details in bank struct\r\n    //bank list\r\n    mapping(address => Bank) public  banks;\r\n\r\n    constructor()public{\r\n\r\n        admin=msg.sender;\r\n        bankCount=0;\r\n    }\r\n\r\n\r\n    //this function will add a customer to the customer list\r\n    function AddCustomer(string memory _userName, string memory _customerData) public {\r\n\r\n        //the bank should be present in bank list in order to add a customer in customer list\r\n        require(banks[msg.sender].ethAddress!=address(0),\"Bank is not present in the database\");\r\n\r\n        /*if customer is not present in the customer list , add the customer (if bank address of customer is blank\r\n        it means customer is not in the list) */\r\n        require(customers[_userName].bank == address(0), \"Customer is already present, please call modifyCustomer to edit the customer data\");\r\n\r\n\r\n        customers[_userName].userName = _userName;\r\n        customers[_userName].data = _customerData;\r\n        customers[_userName].bank = msg.sender;\r\n        customers[_userName].upVotes=0;\r\n        customers[_userName].downVotes=0;\r\n    }\r\n\r\n    //this function allows a bank to view the details of a customer\r\n    function ViewCustomer(string memory _userName) public view returns (string memory, string memory, address) {\r\n\r\n        //the bank should be present in bank list in order to view a customer in customer list\r\n        require(banks[msg.sender].ethAddress!=address(0),\"Bank is not present in the database\");\r\n\r\n        /*if customer is present in the customer list , view the customer details\r\n       (if bank address of customer is not  blank it means customer is in the list) */\r\n        require(customers[_userName].bank != address(0), \"Customer is not present in the database\");\r\n        return (customers[_userName].userName, customers[_userName].data, customers[_userName].bank);\r\n    }\r\n\r\n    /* this function allows a bank to modify a customer's data . This will remove the customer from the kyc request list and\r\n    set the number of upvotes and downvotes to zero*/\r\n\r\n    function ModifyCustomer(string memory _userName, string memory _newcustomerData) public {\r\n\r\n        //the bank should be present in bank list in order to modify a customer in customer list\r\n        require(banks[msg.sender].ethAddress!=address(0),\"Bank is not present in the database\");\r\n\r\n        /*if customer is present in the customer list , modify the customer details in the customer list\r\n      (if bank address of customer is not  blank it means customer is in the list) */\r\n\r\n        require(customers[_userName].bank != address(0), \"Customer is not present in the database\");\r\n\r\n        customers[_userName].data = _newcustomerData;\r\n        customers[_userName].upVotes=0;\r\n        customers[_userName].downVotes=0;\r\n        delete request[_userName];\r\n    }\r\n\r\n    //this function is used to add the KYC request to the requests list\r\n    function AddRequest(string memory _userName,string memory _customerData) public{\r\n\r\n        //the bank should be present in bank list in order to add a kyc request for the  _newcustomerData\r\n        require(banks[msg.sender].ethAddress!=address(0),\"Bank is not present in the database\");\r\n\r\n        /*if customer is present in the customer list , add the customer request to request list\r\n        (if bank address of customer is not  blank it means customer is in the list) */\r\n\r\n        require(customers[_userName].bank != address(0), \"Customer is not present in the database\");\r\n        request[_userName].userName=_userName;\r\n        request[_userName].customerData=_customerData;\r\n        request[_userName].bankAddress=msg.sender;\r\n    }\r\n\r\n    //this function will remove the request from the request list\r\n    function RemoveRequest(string memory _userName) public{\r\n\r\n        //the bank should be present in bank list in order to remove a kyc request of customer in kyc request list\r\n        require(banks[msg.sender].ethAddress!=address(0),\"Bank is not present in the database\");\r\n\r\n        /*if customer is present in the customer list , remove the customer request from  request list\r\n      (if bank address of customer is not  blank it means customer is  in the list)   */\r\n\r\n        require(customers[_userName].bank != address(0), \"Customer is not present in the database\");\r\n\r\n        delete request[_userName];\r\n\r\n    }\r\n    /*this function allows a bank to cast an upvote for a customer . This vote from a bank means it accepts the customer details\r\n    as well as acknowledge the KYC process done by some bank for the customer*/\r\n\r\n    function UpvoteCustomer(string memory _userName)public{\r\n\r\n        //the bank should be present in bank list in order to upvote a customer in customer list\r\n        require(banks[msg.sender].ethAddress!=address(0),\"Bank is not present in the database\");\r\n\r\n        //only valid banks should be allowed to upvote a customer\r\n        require(banks[msg.sender].isAllowedToVote==true,\"This bank is banned from upvoting/downvoting\");\r\n\r\n        /*if customer is present in the customer list , upvote the customer\r\n      (if bank address of customer is not  blank it means customer is  in the list)  */\r\n\r\n        require(customers[_userName].bank!=address(0),\"Customer is not present in the database\");\r\n\r\n        customers[_userName].upVotes+=1;\r\n\r\n        uint threshold=bankCount/3;\r\n\r\n        //if number of upvotes is greater than downVotes , set kycStatus of customer as true for customer\r\n        if(customers[_userName].upVotes>customers[_userName].downVotes && customers[_userName].downVotes<threshold){\r\n\r\n            customers[_userName].kycStatus=true;\r\n\r\n        }\r\n        /* else if the number of downvotes is greater than or equal to threshold, set kycStatus as false for customer\r\n        and the \"isAllowedToVote\" property of bank who is upvoting to false */\r\n\r\n        else  if(customers[_userName].downVotes>=threshold){\r\n\r\n            customers[_userName].kycStatus=false;\r\n            banks[msg.sender].isAllowedToVote=false;\r\n        }\r\n\r\n    }\r\n\r\n    /*this function allows a bank to cast a downvote for the customer . This vote from a bank means that it does not accept the\r\n    customer details*/\r\n\r\n    function DownVoteCustomer(string memory _userName)public{\r\n\r\n        //the bank should be present in bank list in order to downvote a customer in customer list\r\n        require(banks[msg.sender].ethAddress!=address(0),\"Bank is not present in the database\");\r\n\r\n        //only valid banks should be allowed to downVote a customer\r\n        require(banks[msg.sender].isAllowedToVote==true,\"bank is banned from upvoting/downvoting\");\r\n\r\n        /*if customer is present in the customer list , downvote the customer\r\n      (if bank address of customer is not  blank it means customer is  in the list) */\r\n\r\n        require(customers[_userName].bank!=address(0),\"Customer is not present in the database\");\r\n\r\n        customers[_userName].downVotes+=1;\r\n\r\n        uint threshold=bankCount/3;\r\n\r\n        //if number of upvotes is greater than downVotes , set kycStatus of customer as true for customer\r\n        if(customers[_userName].upVotes>customers[_userName].downVotes && customers[_userName].downVotes<threshold){\r\n\r\n            customers[_userName].kycStatus=true;\r\n\r\n        }\r\n        //else if the number of downvotes is greater than or equal to threshold, set kycStatus as false for customer\r\n        else  if(customers[_userName].downVotes>=threshold){\r\n\r\n            customers[_userName].kycStatus=false;\r\n        }\r\n\r\n    }\r\n\r\n    //this function is used to fetch bank complaints from the smart contract\r\n    function GetBankComplaints(address bankAddress) view public returns(uint){\r\n\r\n        //the bank should be present in bank list in order to fetch compains of a bank\r\n        require(banks[msg.sender].ethAddress!=address(0),\"Bank is not present in the database\");\r\n\r\n        /* if the bank is present in the bank list , fetch the complaints reported for bank\r\n        (if the ethAddress of bank is not blank , bank is present in the bank list) */\r\n\r\n        require(banks[bankAddress].ethAddress!=address(0),\"Bank should be present in the bank list\");\r\n\r\n        return banks[bankAddress].complaintsReported;\r\n    }\r\n\r\n    //this function is used to fetch bank details\r\n    function ViewBankDetails(address bankAddress) view public returns(string memory,address,string memory,uint,uint,bool){\r\n\r\n        //the bank should be present in bank list in order to view details of a bank\r\n        require(banks[msg.sender].ethAddress!=address(0),\"Bank is not present in the database\");\r\n\r\n        /* if the bank is present in the bank list , view bank details\r\n       (if the ethAddress of bank is not blank , bank is present in the bank list) */\r\n\r\n        require(banks[bankAddress].ethAddress!=address(0),\"Bank should be present in the bank list\");\r\n\r\n        return (banks[bankAddress].name,banks[bankAddress].ethAddress,banks[bankAddress].regNumber,banks[bankAddress].complaintsReported,banks[bankAddress].KYC_count,banks[bankAddress].isAllowedToVote);\r\n    }\r\n\r\n    /*This function is used to report a complaint against any bank in the network. It will also modify the \"isAllowedToVote\"\r\n    status of the bank according to the conditions mentioned in the problem statement*/\r\n\r\n    function ReportBank(address bankAddress)public{\r\n\r\n        //the bank should be present in bank list in order to report complain  of a bank\r\n        require(banks[msg.sender].ethAddress!=address(0),\"Bank is not present in the database\");\r\n\r\n        /* if the bank is present in the bank list , report a complain against the bank and set isAllowedToVote variable\r\n        based on condition  (if the ethAddress of bank is not blank , bank is present in the bank list) */\r\n\r\n        require(banks[bankAddress].ethAddress!=address(0),\"Bank should be present in the bank list\");\r\n\r\n        banks[bankAddress].complaintsReported+=1;\r\n\r\n        uint threshold=bankCount/3;\r\n\r\n        /* if more than 1/3 of total number of banks have reported complain against this bank , set \"isAllowedToVote\" status as\r\n        false */\r\n\r\n        if(banks[bankAddress].complaintsReported>=threshold){\r\n\r\n            banks[bankAddress].isAllowedToVote=false;\r\n        }\r\n\r\n\r\n    }\r\n\r\n    //modifier to check if the function is called by admin only\r\n    modifier checkAdmin(){\r\n\r\n        require(msg.sender==admin,\"method invoked by non-admin\");\r\n        _;\r\n    }\r\n\r\n    /* this function is used by the admin to add a bank to the KYC contract , you need to verify whether the user trying to\r\n    call this function is an admin or not*/\r\n    function AddBank(string memory bankName,address bankAddress,string memory registrationNumber)public checkAdmin{\r\n\r\n\r\n        /* if the bank is not present in the bank list , add the bank to the bank list\r\n      (if the ethAddress of bank is not blank , bank is present in the bank list) */\r\n\r\n        require(banks[bankAddress].ethAddress==address(0),\"Bank already present in the banks list\");\r\n\r\n\r\n\r\n        banks[bankAddress].name=bankName;\r\n        banks[bankAddress].ethAddress=bankAddress;\r\n        banks[bankAddress].regNumber=registrationNumber;\r\n        banks[bankAddress].complaintsReported=0;\r\n        banks[bankAddress].isAllowedToVote=true;\r\n        banks[bankAddress].KYC_count=0;\r\n        bankCount+=1;\r\n    }\r\n\r\n    /* this function can only be used by the admin to change the status of \"isAllowedToVote\" of any of the banks at any point\r\n    of time */\r\n\r\n    function ModifyIsAllowedToVote(address bankAddress, bool status)public checkAdmin{\r\n\r\n\r\n\r\n        /* if the bank is  present in the bank list , change the status of \"isAllowedToVote\"\r\n    (if the ethAddress of bank is not blank , bank is present in the bank list) */\r\n\r\n        require(banks[bankAddress].ethAddress!=address(0),\"Bank not present in the banks list\");\r\n\r\n        banks[bankAddress].isAllowedToVote=status;\r\n    }\r\n\r\n    /* this function is used by the admin to remove a bank from KYC contract . you need to verify whether the user trying to\r\n    call this function is the admin or not */\r\n\r\n    function RemoveBank(address bankAddress)public checkAdmin{\r\n\r\n\r\n        /* if the bank is  present in the bank list , remove the bank from banks list\r\n    (if the ethAddress of bank is not blank , bank is present in the bank list) */\r\n\r\n        require(banks[bankAddress].ethAddress!=address(0),\"Bank not present in the banks list\");\r\n\r\n\r\n        delete banks[bankAddress];\r\n\r\n        bankCount-=1;\r\n    }\r\n\r\n}\r\n\r\n\r\n",
  "sourcePath": "C:/Data/Upgrad projects/ETHEREUM PROJECT/phase 3/KYC-SC/contracts/KYC.sol",
  "compiler": {
    "name": "solc",
    "version": "0.5.16+commit.9c3226ce.Emscripten.clang"
  },
  "schemaVersion": "3.4.1",
  "updatedAt": "2021-07-05T14:44:26.367Z",
  "networkType": "ethereum",
  "devdoc": {
    "methods": {}
  },
  "userdoc": {
    "methods": {}
  }
}